{
  "_format": "hh-sol-artifact-1",
  "contractName": "NFT",
  "sourceName": "contracts/NFT.template.sol",
  "abi": [
    {
      "inputs": [
        {
          "internalType": "address",
          "name": "owner",
          "type": "address"
        },
        {
          "internalType": "address",
          "name": "defaultRoyaltyRecipient",
          "type": "address"
        },
        {
          "internalType": "uint256",
          "name": "defaultRoyaltyFeeBasisPoints",
          "type": "uint256"
        }
      ],
      "stateMutability": "nonpayable",
      "type": "constructor"
    },
    {
      "anonymous": false,
      "inputs": [
        {
          "indexed": true,
          "internalType": "address",
          "name": "owner",
          "type": "address"
        },
        {
          "indexed": true,
          "internalType": "address",
          "name": "approved",
          "type": "address"
        },
        {
          "indexed": true,
          "internalType": "uint256",
          "name": "tokenId",
          "type": "uint256"
        }
      ],
      "name": "Approval",
      "type": "event"
    },
    {
      "anonymous": false,
      "inputs": [
        {
          "indexed": true,
          "internalType": "address",
          "name": "owner",
          "type": "address"
        },
        {
          "indexed": true,
          "internalType": "address",
          "name": "operator",
          "type": "address"
        },
        {
          "indexed": false,
          "internalType": "bool",
          "name": "approved",
          "type": "bool"
        }
      ],
      "name": "ApprovalForAll",
      "type": "event"
    },
    {
      "anonymous": false,
      "inputs": [
        {
          "indexed": true,
          "internalType": "uint256",
          "name": "tokenId",
          "type": "uint256"
        },
        {
          "indexed": false,
          "internalType": "string",
          "name": "tokenURI",
          "type": "string"
        }
      ],
      "name": "NFTMinted",
      "type": "event"
    },
    {
      "anonymous": false,
      "inputs": [
        {
          "indexed": true,
          "internalType": "address",
          "name": "previousOwner",
          "type": "address"
        },
        {
          "indexed": true,
          "internalType": "address",
          "name": "newOwner",
          "type": "address"
        }
      ],
      "name": "OwnershipTransferred",
      "type": "event"
    },
    {
      "anonymous": false,
      "inputs": [
        {
          "indexed": true,
          "internalType": "address",
          "name": "from",
          "type": "address"
        },
        {
          "indexed": true,
          "internalType": "address",
          "name": "to",
          "type": "address"
        },
        {
          "indexed": true,
          "internalType": "uint256",
          "name": "tokenId",
          "type": "uint256"
        }
      ],
      "name": "Transfer",
      "type": "event"
    },
    {
      "inputs": [
        {
          "internalType": "address",
          "name": "to",
          "type": "address"
        },
        {
          "internalType": "uint256",
          "name": "tokenId",
          "type": "uint256"
        }
      ],
      "name": "approve",
      "outputs": [],
      "stateMutability": "nonpayable",
      "type": "function"
    },
    {
      "inputs": [
        {
          "internalType": "address",
          "name": "owner",
          "type": "address"
        }
      ],
      "name": "balanceOf",
      "outputs": [
        {
          "internalType": "uint256",
          "name": "",
          "type": "uint256"
        }
      ],
      "stateMutability": "view",
      "type": "function"
    },
    {
      "inputs": [
        {
          "internalType": "string",
          "name": "tokenURI",
          "type": "string"
        }
      ],
      "name": "createToken",
      "outputs": [
        {
          "internalType": "uint256",
          "name": "",
          "type": "uint256"
        }
      ],
      "stateMutability": "nonpayable",
      "type": "function"
    },
    {
      "inputs": [
        {
          "internalType": "uint256",
          "name": "tokenId",
          "type": "uint256"
        }
      ],
      "name": "getApproved",
      "outputs": [
        {
          "internalType": "address",
          "name": "",
          "type": "address"
        }
      ],
      "stateMutability": "view",
      "type": "function"
    },
    {
      "inputs": [
        {
          "internalType": "address",
          "name": "owner",
          "type": "address"
        },
        {
          "internalType": "address",
          "name": "operator",
          "type": "address"
        }
      ],
      "name": "isApprovedForAll",
      "outputs": [
        {
          "internalType": "bool",
          "name": "",
          "type": "bool"
        }
      ],
      "stateMutability": "view",
      "type": "function"
    },
    {
      "inputs": [],
      "name": "name",
      "outputs": [
        {
          "internalType": "string",
          "name": "",
          "type": "string"
        }
      ],
      "stateMutability": "view",
      "type": "function"
    },
    {
      "inputs": [],
      "name": "owner",
      "outputs": [
        {
          "internalType": "address",
          "name": "",
          "type": "address"
        }
      ],
      "stateMutability": "view",
      "type": "function"
    },
    {
      "inputs": [
        {
          "internalType": "uint256",
          "name": "tokenId",
          "type": "uint256"
        }
      ],
      "name": "ownerOf",
      "outputs": [
        {
          "internalType": "address",
          "name": "",
          "type": "address"
        }
      ],
      "stateMutability": "view",
      "type": "function"
    },
    {
      "inputs": [],
      "name": "renounceOwnership",
      "outputs": [],
      "stateMutability": "nonpayable",
      "type": "function"
    },
    {
      "inputs": [
        {
          "internalType": "uint256",
          "name": "_tokenId",
          "type": "uint256"
        },
        {
          "internalType": "uint256",
          "name": "_salePrice",
          "type": "uint256"
        }
      ],
      "name": "royaltyInfo",
      "outputs": [
        {
          "internalType": "address",
          "name": "receiver",
          "type": "address"
        },
        {
          "internalType": "uint256",
          "name": "royaltyAmount",
          "type": "uint256"
        }
      ],
      "stateMutability": "view",
      "type": "function"
    },
    {
      "inputs": [
        {
          "internalType": "address",
          "name": "from",
          "type": "address"
        },
        {
          "internalType": "address",
          "name": "to",
          "type": "address"
        },
        {
          "internalType": "uint256",
          "name": "tokenId",
          "type": "uint256"
        }
      ],
      "name": "safeTransferFrom",
      "outputs": [],
      "stateMutability": "nonpayable",
      "type": "function"
    },
    {
      "inputs": [
        {
          "internalType": "address",
          "name": "from",
          "type": "address"
        },
        {
          "internalType": "address",
          "name": "to",
          "type": "address"
        },
        {
          "internalType": "uint256",
          "name": "tokenId",
          "type": "uint256"
        },
        {
          "internalType": "bytes",
          "name": "_data",
          "type": "bytes"
        }
      ],
      "name": "safeTransferFrom",
      "outputs": [],
      "stateMutability": "nonpayable",
      "type": "function"
    },
    {
      "inputs": [
        {
          "internalType": "address",
          "name": "operator",
          "type": "address"
        },
        {
          "internalType": "bool",
          "name": "approved",
          "type": "bool"
        }
      ],
      "name": "setApprovalForAll",
      "outputs": [],
      "stateMutability": "nonpayable",
      "type": "function"
    },
    {
      "inputs": [
        {
          "internalType": "address",
          "name": "newRecipient",
          "type": "address"
        }
      ],
      "name": "setRoyalties",
      "outputs": [],
      "stateMutability": "nonpayable",
      "type": "function"
    },
    {
      "inputs": [
        {
          "internalType": "bytes4",
          "name": "interfaceId",
          "type": "bytes4"
        }
      ],
      "name": "supportsInterface",
      "outputs": [
        {
          "internalType": "bool",
          "name": "",
          "type": "bool"
        }
      ],
      "stateMutability": "view",
      "type": "function"
    },
    {
      "inputs": [],
      "name": "symbol",
      "outputs": [
        {
          "internalType": "string",
          "name": "",
          "type": "string"
        }
      ],
      "stateMutability": "view",
      "type": "function"
    },
    {
      "inputs": [
        {
          "internalType": "uint256",
          "name": "tokenId",
          "type": "uint256"
        }
      ],
      "name": "tokenURI",
      "outputs": [
        {
          "internalType": "string",
          "name": "",
          "type": "string"
        }
      ],
      "stateMutability": "view",
      "type": "function"
    },
    {
      "inputs": [
        {
          "internalType": "address",
          "name": "from",
          "type": "address"
        },
        {
          "internalType": "address",
          "name": "to",
          "type": "address"
        },
        {
          "internalType": "uint256",
          "name": "tokenId",
          "type": "uint256"
        }
      ],
      "name": "transferFrom",
      "outputs": [],
      "stateMutability": "nonpayable",
      "type": "function"
    },
    {
      "inputs": [
        {
          "internalType": "address",
          "name": "newOwner",
          "type": "address"
        }
      ],
      "name": "transferOwnership",
      "outputs": [],
      "stateMutability": "nonpayable",
      "type": "function"
    }
  ],
  "bytecode": "0x60806040523480156200001157600080fd5b5060405162001d1d38038062001d1d833981016040819052620000349162000222565b60408051808201825260118152705f5f434f4e54524143545f4e414d455f5f60781b60208083019182528351808501909452601384527f5f5f434f4e54524143545f53594d424f4c5f5f00000000000000000000000000908401528151919291620000a2916000916200015f565b508051620000b89060019060208401906200015f565b505050620000d5620000cf6200010960201b60201c565b6200010d565b600980546001600160a01b0319166001600160a01b038416179055600a81905562000100836200010d565b5050506200029f565b3390565b600780546001600160a01b038381166001600160a01b0319831681179093556040519116919082907f8be0079c531659141344cd1fd0a4f28419497f9722a3daafe3b4186f6b6457e090600090a35050565b8280546200016d9062000262565b90600052602060002090601f016020900481019282620001915760008555620001dc565b82601f10620001ac57805160ff1916838001178555620001dc565b82800160010185558215620001dc579182015b82811115620001dc578251825591602001919060010190620001bf565b50620001ea929150620001ee565b5090565b5b80821115620001ea5760008155600101620001ef565b80516001600160a01b03811681146200021d57600080fd5b919050565b60008060006060848603121562000237578283fd5b620002428462000205565b9250620002526020850162000205565b9150604084015190509250925092565b600181811c908216806200027757607f821691505b602082108114156200029957634e487b7160e01b600052602260045260246000fd5b50919050565b611a6e80620002af6000396000f3fe608060405234801561001057600080fd5b50600436106101215760003560e01c80636352211e116100ad578063a22cb46511610071578063a22cb46514610276578063b88d4fde14610289578063c87b56dd1461029c578063e985e9c5146102af578063f2fde38b146102eb57600080fd5b80636352211e1461022f57806370a0823114610242578063715018a6146102555780638da5cb5b1461025d57806395d89b411461026e57600080fd5b806323b872dd116100f457806323b872dd146101a35780632a55205a146101b65780632a9e63c6146101e857806342842e0e146101fb57806345576f941461020e57600080fd5b806301ffc9a71461012657806306fdde031461014e578063081812fc14610163578063095ea7b31461018e575b600080fd5b6101396101343660046116ae565b6102fe565b60405190151581526020015b60405180910390f35b610156610329565b60405161014591906117fd565b61017661017136600461172c565b6103bb565b6040516001600160a01b039091168152602001610145565b6101a161019c366004611685565b610448565b005b6101a16101b1366004611597565b61055e565b6101c96101c4366004611744565b61058f565b604080516001600160a01b039093168352602083019190915201610145565b6101a16101f636600461154b565b6105c9565b6101a1610209366004611597565b6105ff565b61022161021c3660046116e6565b61061a565b604051908152602001610145565b61017661023d36600461172c565b610689565b61022161025036600461154b565b610700565b6101a1610787565b6007546001600160a01b0316610176565b6101566107bd565b6101a161028436600461164b565b6107cc565b6101a16102973660046115d2565b6107db565b6101566102aa36600461172c565b610813565b6101396102bd366004611565565b6001600160a01b03918216600090815260056020908152604080832093909416825291909152205460ff1690565b6101a16102f936600461154b565b61098a565b60006001600160e01b0319821663152a902d60e11b1480610323575061032382610a22565b92915050565b60606000805461033890611976565b80601f016020809104026020016040519081016040528092919081815260200182805461036490611976565b80156103b15780601f10610386576101008083540402835291602001916103b1565b820191906000526020600020905b81548152906001019060200180831161039457829003601f168201915b5050505050905090565b60006103c682610a72565b61042c5760405162461bcd60e51b815260206004820152602c60248201527f4552433732313a20617070726f76656420717565727920666f72206e6f6e657860448201526b34b9ba32b73a103a37b5b2b760a11b60648201526084015b60405180910390fd5b506000908152600460205260409020546001600160a01b031690565b600061045382610689565b9050806001600160a01b0316836001600160a01b031614156104c15760405162461bcd60e51b815260206004820152602160248201527f4552433732313a20617070726f76616c20746f2063757272656e74206f776e656044820152603960f91b6064820152608401610423565b336001600160a01b03821614806104dd57506104dd81336102bd565b61054f5760405162461bcd60e51b815260206004820152603860248201527f4552433732313a20617070726f76652063616c6c6572206973206e6f74206f7760448201527f6e6572206e6f7220617070726f76656420666f7220616c6c00000000000000006064820152608401610423565b6105598383610a8f565b505050565b6105683382610afd565b6105845760405162461bcd60e51b815260040161042390611897565b610559838383610be6565b600954600a5460009182916001600160a01b0390911690612710906105b49086611914565b6105be9190611900565b915091509250929050565b6007546001600160a01b031633146105f35760405162461bcd60e51b815260040161042390611862565b6105fc81610d82565b50565b610559838383604051806020016040528060008152506107db565b600061062a600880546001019055565b600061063560085490565b90506106413382610e0f565b61064b8184610f42565b807f9e0bfaf38878aad3ebd19b8c8065288eb130f0499a7378363d4652515588ac968460405161067b91906117fd565b60405180910390a292915050565b6000818152600260205260408120546001600160a01b0316806103235760405162461bcd60e51b815260206004820152602960248201527f4552433732313a206f776e657220717565727920666f72206e6f6e657869737460448201526832b73a103a37b5b2b760b91b6064820152608401610423565b60006001600160a01b03821661076b5760405162461bcd60e51b815260206004820152602a60248201527f4552433732313a2062616c616e636520717565727920666f7220746865207a65604482015269726f206164647265737360b01b6064820152608401610423565b506001600160a01b031660009081526003602052604090205490565b6007546001600160a01b031633146107b15760405162461bcd60e51b815260040161042390611862565b6107bb6000610fcd565b565b60606001805461033890611976565b6107d733838361101f565b5050565b6107e53383610afd565b6108015760405162461bcd60e51b815260040161042390611897565b61080d848484846110ee565b50505050565b606061081e82610a72565b6108845760405162461bcd60e51b815260206004820152603160248201527f45524337323155524953746f726167653a2055524920717565727920666f72206044820152703737b732bc34b9ba32b73a103a37b5b2b760791b6064820152608401610423565b6000828152600660205260408120805461089d90611976565b80601f01602080910402602001604051908101604052809291908181526020018280546108c990611976565b80156109165780601f106108eb57610100808354040283529160200191610916565b820191906000526020600020905b8154815290600101906020018083116108f957829003601f168201915b50505050509050600061093460408051602081019091526000815290565b9050805160001415610947575092915050565b815115610979578082604051602001610961929190611791565b60405160208183030381529060405292505050919050565b61098284611121565b949350505050565b6007546001600160a01b031633146109b45760405162461bcd60e51b815260040161042390611862565b6001600160a01b038116610a195760405162461bcd60e51b815260206004820152602660248201527f4f776e61626c653a206e6577206f776e657220697320746865207a65726f206160448201526564647265737360d01b6064820152608401610423565b6105fc81610fcd565b60006001600160e01b031982166380ac58cd60e01b1480610a5357506001600160e01b03198216635b5e139f60e01b145b8061032357506301ffc9a760e01b6001600160e01b0319831614610323565b6000908152600260205260409020546001600160a01b0316151590565b600081815260046020526040902080546001600160a01b0319166001600160a01b0384169081179091558190610ac482610689565b6001600160a01b03167f8c5be1e5ebec7d5bd14f71427d1e84f3dd0314c0f7b2291e5b200ac8c7c3b92560405160405180910390a45050565b6000610b0882610a72565b610b695760405162461bcd60e51b815260206004820152602c60248201527f4552433732313a206f70657261746f7220717565727920666f72206e6f6e657860448201526b34b9ba32b73a103a37b5b2b760a11b6064820152608401610423565b6000610b7483610689565b9050806001600160a01b0316846001600160a01b03161480610bbb57506001600160a01b0380821660009081526005602090815260408083209388168352929052205460ff165b806109825750836001600160a01b0316610bd4846103bb565b6001600160a01b031614949350505050565b826001600160a01b0316610bf982610689565b6001600160a01b031614610c5d5760405162461bcd60e51b815260206004820152602560248201527f4552433732313a207472616e736665722066726f6d20696e636f72726563742060448201526437bbb732b960d91b6064820152608401610423565b6001600160a01b038216610cbf5760405162461bcd60e51b8152602060048201526024808201527f4552433732313a207472616e7366657220746f20746865207a65726f206164646044820152637265737360e01b6064820152608401610423565b610cca600082610a8f565b6001600160a01b0383166000908152600360205260408120805460019290610cf3908490611933565b90915550506001600160a01b0382166000908152600360205260408120805460019290610d219084906118e8565b909155505060008181526002602052604080822080546001600160a01b0319166001600160a01b0386811691821790925591518493918716917fddf252ad1be2c89b69c2b068fc378daa952ba7f163c4a11628f55a4df523b3ef91a4505050565b6001600160a01b038116610ded5760405162461bcd60e51b815260206004820152602c60248201527f526f79616c746965733a206e657720726563697069656e74206973207468652060448201526b7a65726f206164647265737360a01b6064820152608401610423565b600980546001600160a01b0319166001600160a01b0392909216919091179055565b6001600160a01b038216610e655760405162461bcd60e51b815260206004820181905260248201527f4552433732313a206d696e7420746f20746865207a65726f20616464726573736044820152606401610423565b610e6e81610a72565b15610ebb5760405162461bcd60e51b815260206004820152601c60248201527f4552433732313a20746f6b656e20616c7265616479206d696e746564000000006044820152606401610423565b6001600160a01b0382166000908152600360205260408120805460019290610ee49084906118e8565b909155505060008181526002602052604080822080546001600160a01b0319166001600160a01b03861690811790915590518392907fddf252ad1be2c89b69c2b068fc378daa952ba7f163c4a11628f55a4df523b3ef908290a45050565b610f4b82610a72565b610fae5760405162461bcd60e51b815260206004820152602e60248201527f45524337323155524953746f726167653a2055524920736574206f66206e6f6e60448201526d32bc34b9ba32b73a103a37b5b2b760911b6064820152608401610423565b6000828152600660209081526040909120825161055992840190611420565b600780546001600160a01b038381166001600160a01b0319831681179093556040519116919082907f8be0079c531659141344cd1fd0a4f28419497f9722a3daafe3b4186f6b6457e090600090a35050565b816001600160a01b0316836001600160a01b031614156110815760405162461bcd60e51b815260206004820152601960248201527f4552433732313a20617070726f766520746f2063616c6c6572000000000000006044820152606401610423565b6001600160a01b03838116600081815260056020908152604080832094871680845294825291829020805460ff191686151590811790915591519182527f17307eab39ab6107e8899845ad3d59bd9653f200f220920489ca2b5937696c31910160405180910390a3505050565b6110f9848484610be6565b611105848484846111f9565b61080d5760405162461bcd60e51b815260040161042390611810565b606061112c82610a72565b6111905760405162461bcd60e51b815260206004820152602f60248201527f4552433732314d657461646174613a2055524920717565727920666f72206e6f60448201526e3732bc34b9ba32b73a103a37b5b2b760891b6064820152608401610423565b60006111a760408051602081019091526000815290565b905060008151116111c757604051806020016040528060008152506111f2565b806111d184611306565b6040516020016111e2929190611791565b6040516020818303038152906040525b9392505050565b60006001600160a01b0384163b156112fb57604051630a85bd0160e11b81526001600160a01b0385169063150b7a029061123d9033908990889088906004016117c0565b602060405180830381600087803b15801561125757600080fd5b505af1925050508015611287575060408051601f3d908101601f19168201909252611284918101906116ca565b60015b6112e1573d8080156112b5576040519150601f19603f3d011682016040523d82523d6000602084013e6112ba565b606091505b5080516112d95760405162461bcd60e51b815260040161042390611810565b805181602001fd5b6001600160e01b031916630a85bd0160e11b149050610982565b506001949350505050565b60608161132a5750506040805180820190915260018152600360fc1b602082015290565b8160005b8115611354578061133e816119b1565b915061134d9050600a83611900565b915061132e565b60008167ffffffffffffffff81111561137d57634e487b7160e01b600052604160045260246000fd5b6040519080825280601f01601f1916602001820160405280156113a7576020820181803683370190505b5090505b8415610982576113bc600183611933565b91506113c9600a866119cc565b6113d49060306118e8565b60f81b8183815181106113f757634e487b7160e01b600052603260045260246000fd5b60200101906001600160f81b031916908160001a905350611419600a86611900565b94506113ab565b82805461142c90611976565b90600052602060002090601f01602090048101928261144e5760008555611494565b82601f1061146757805160ff1916838001178555611494565b82800160010185558215611494579182015b82811115611494578251825591602001919060010190611479565b506114a09291506114a4565b5090565b5b808211156114a057600081556001016114a5565b600067ffffffffffffffff808411156114d4576114d4611a0c565b604051601f8501601f19908116603f011681019082821181831017156114fc576114fc611a0c565b8160405280935085815286868601111561151557600080fd5b858560208301376000602087830101525050509392505050565b80356001600160a01b038116811461154657600080fd5b919050565b60006020828403121561155c578081fd5b6111f28261152f565b60008060408385031215611577578081fd5b6115808361152f565b915061158e6020840161152f565b90509250929050565b6000806000606084860312156115ab578081fd5b6115b48461152f565b92506115c26020850161152f565b9150604084013590509250925092565b600080600080608085870312156115e7578081fd5b6115f08561152f565b93506115fe6020860161152f565b925060408501359150606085013567ffffffffffffffff811115611620578182fd5b8501601f81018713611630578182fd5b61163f878235602084016114b9565b91505092959194509250565b6000806040838503121561165d578182fd5b6116668361152f565b91506020830135801515811461167a578182fd5b809150509250929050565b60008060408385031215611697578182fd5b6116a08361152f565b946020939093013593505050565b6000602082840312156116bf578081fd5b81356111f281611a22565b6000602082840312156116db578081fd5b81516111f281611a22565b6000602082840312156116f7578081fd5b813567ffffffffffffffff81111561170d578182fd5b8201601f8101841361171d578182fd5b610982848235602084016114b9565b60006020828403121561173d578081fd5b5035919050565b60008060408385031215611756578182fd5b50508035926020909101359150565b6000815180845261177d81602086016020860161194a565b601f01601f19169290920160200192915050565b600083516117a381846020880161194a565b8351908301906117b781836020880161194a565b01949350505050565b6001600160a01b03858116825284166020820152604081018390526080606082018190526000906117f390830184611765565b9695505050505050565b6020815260006111f26020830184611765565b60208082526032908201527f4552433732313a207472616e7366657220746f206e6f6e20455243373231526560408201527131b2b4bb32b91034b6b83632b6b2b73a32b960711b606082015260800190565b6020808252818101527f4f776e61626c653a2063616c6c6572206973206e6f7420746865206f776e6572604082015260600190565b60208082526031908201527f4552433732313a207472616e736665722063616c6c6572206973206e6f74206f6040820152701ddb995c881b9bdc88185c1c1c9bdd9959607a1b606082015260800190565b600082198211156118fb576118fb6119e0565b500190565b60008261190f5761190f6119f6565b500490565b600081600019048311821515161561192e5761192e6119e0565b500290565b600082821015611945576119456119e0565b500390565b60005b8381101561196557818101518382015260200161194d565b8381111561080d5750506000910152565b600181811c9082168061198a57607f821691505b602082108114156119ab57634e487b7160e01b600052602260045260246000fd5b50919050565b60006000198214156119c5576119c56119e0565b5060010190565b6000826119db576119db6119f6565b500690565b634e487b7160e01b600052601160045260246000fd5b634e487b7160e01b600052601260045260246000fd5b634e487b7160e01b600052604160045260246000fd5b6001600160e01b0319811681146105fc57600080fdfea26469706673582212205daff1b05dfd0075b684a1937d1d02269d22ea676138e864b7d92d51037b483264736f6c63430008040033",
  "linkReferences": {},
  "deployedLinkReferences": {}
}