{
  "_format": "hh-sol-artifact-1",
  "contractName": "SimpleStorage",
  "sourceName": "contracts/SimpleStorage.sol",
  "abi": [
    {
      "anonymous": false,
      "inputs": [
        {
          "indexed": false,
          "internalType": "string",
          "name": "_message",
          "type": "string"
        }
      ],
      "name": "StorageSet",
      "type": "event"
    },
    {
      "inputs": [
        {
          "internalType": "uint256",
          "name": "x",
          "type": "uint256"
        }
      ],
      "name": "set",
      "outputs": [],
      "stateMutability": "nonpayable",
      "type": "function"
    },
    {
      "inputs": [],
      "name": "storedData",
      "outputs": [
        {
          "internalType": "uint256",
          "name": "",
          "type": "uint256"
        }
      ],
      "stateMutability": "view",
      "type": "function"
    }
  ],
  "bytecode": "0x608060405234801561001057600080fd5b5061011e806100206000396000f3fe6080604052348015600f57600080fd5b506004361060325760003560e01c80632a1afcd914603757806360fe47b1146051575b600080fd5b603f60005481565b60405190815260200160405180910390f35b6060605c36600460d1565b6062565b005b60008190556040517f60cdc157ca4737a5d39a0e107532616e7bf6946e615228812c7f9bc9f81797a69060c69060208082526019908201527f446174612073746f726564207375636365737366756c6c792100000000000000604082015260600190565b60405180910390a150565b60006020828403121560e1578081fd5b503591905056fea26469706673582212209fc60a8f6663527ad60188efa6c0b96caf3289805c540f40c2fc79e3fc2de58c64736f6c63430008040033",
  "linkReferences": {},
  "deployedLinkReferences": {}
}