{
  "_format": "hh-sol-artifact-1",
  "contractName": "HarbegerNFT",
  "sourceName": "contracts/HarbegerNFT.sol",
  "abi": [
    {
      "inputs": [],
      "stateMutability": "nonpayable",
      "type": "constructor"
    },
    {
      "anonymous": false,
      "inputs": [
        {
          "indexed": true,
          "internalType": "address",
          "name": "owner",
          "type": "address"
        },
        {
          "indexed": true,
          "internalType": "address",
          "name": "approved",
          "type": "address"
        },
        {
          "indexed": true,
          "internalType": "uint256",
          "name": "tokenId",
          "type": "uint256"
        }
      ],
      "name": "Approval",
      "type": "event"
    },
    {
      "anonymous": false,
      "inputs": [
        {
          "indexed": true,
          "internalType": "address",
          "name": "owner",
          "type": "address"
        },
        {
          "indexed": true,
          "internalType": "address",
          "name": "operator",
          "type": "address"
        },
        {
          "indexed": false,
          "internalType": "bool",
          "name": "approved",
          "type": "bool"
        }
      ],
      "name": "ApprovalForAll",
      "type": "event"
    },
    {
      "anonymous": false,
      "inputs": [
        {
          "indexed": true,
          "internalType": "uint256",
          "name": "tokenId",
          "type": "uint256"
        },
        {
          "indexed": false,
          "internalType": "uint256",
          "name": "paidAmount",
          "type": "uint256"
        },
        {
          "indexed": false,
          "internalType": "uint256",
          "name": "latestPrice",
          "type": "uint256"
        },
        {
          "indexed": false,
          "internalType": "address",
          "name": "from",
          "type": "address"
        }
      ],
      "name": "Bought",
      "type": "event"
    },
    {
      "anonymous": false,
      "inputs": [
        {
          "indexed": true,
          "internalType": "uint256",
          "name": "tokenId",
          "type": "uint256"
        },
        {
          "indexed": false,
          "internalType": "uint256",
          "name": "taxAmount",
          "type": "uint256"
        },
        {
          "indexed": false,
          "internalType": "address",
          "name": "from",
          "type": "address"
        }
      ],
      "name": "Collected",
      "type": "event"
    },
    {
      "anonymous": false,
      "inputs": [
        {
          "indexed": true,
          "internalType": "uint256",
          "name": "tokenId",
          "type": "uint256"
        },
        {
          "indexed": false,
          "internalType": "uint256",
          "name": "value",
          "type": "uint256"
        },
        {
          "indexed": false,
          "internalType": "address",
          "name": "from",
          "type": "address"
        }
      ],
      "name": "Deposited",
      "type": "event"
    },
    {
      "anonymous": false,
      "inputs": [
        {
          "indexed": true,
          "internalType": "uint256",
          "name": "tokenId",
          "type": "uint256"
        },
        {
          "indexed": false,
          "internalType": "address",
          "name": "from",
          "type": "address"
        }
      ],
      "name": "Minted",
      "type": "event"
    },
    {
      "anonymous": false,
      "inputs": [
        {
          "indexed": true,
          "internalType": "uint256",
          "name": "tokenId",
          "type": "uint256"
        },
        {
          "indexed": false,
          "internalType": "uint256",
          "name": "newPrice",
          "type": "uint256"
        },
        {
          "indexed": false,
          "internalType": "address",
          "name": "from",
          "type": "address"
        }
      ],
      "name": "PriceUpdated",
      "type": "event"
    },
    {
      "anonymous": false,
      "inputs": [
        {
          "indexed": true,
          "internalType": "uint256",
          "name": "tokenId",
          "type": "uint256"
        },
        {
          "indexed": false,
          "internalType": "address",
          "name": "from",
          "type": "address"
        }
      ],
      "name": "Reclaimed",
      "type": "event"
    },
    {
      "anonymous": false,
      "inputs": [
        {
          "indexed": true,
          "internalType": "uint256",
          "name": "tokenId",
          "type": "uint256"
        },
        {
          "indexed": false,
          "internalType": "uint256",
          "name": "refund",
          "type": "uint256"
        },
        {
          "indexed": false,
          "internalType": "address",
          "name": "to",
          "type": "address"
        }
      ],
      "name": "Refunded",
      "type": "event"
    },
    {
      "anonymous": false,
      "inputs": [
        {
          "indexed": true,
          "internalType": "address",
          "name": "from",
          "type": "address"
        },
        {
          "indexed": true,
          "internalType": "address",
          "name": "to",
          "type": "address"
        },
        {
          "indexed": true,
          "internalType": "uint256",
          "name": "tokenId",
          "type": "uint256"
        }
      ],
      "name": "Transfer",
      "type": "event"
    },
    {
      "inputs": [
        {
          "internalType": "address",
          "name": "to",
          "type": "address"
        },
        {
          "internalType": "uint256",
          "name": "tokenId",
          "type": "uint256"
        }
      ],
      "name": "approve",
      "outputs": [],
      "stateMutability": "nonpayable",
      "type": "function"
    },
    {
      "inputs": [
        {
          "internalType": "address",
          "name": "owner",
          "type": "address"
        }
      ],
      "name": "balanceOf",
      "outputs": [
        {
          "internalType": "uint256",
          "name": "",
          "type": "uint256"
        }
      ],
      "stateMutability": "view",
      "type": "function"
    },
    {
      "inputs": [
        {
          "internalType": "uint256",
          "name": "tokenId",
          "type": "uint256"
        },
        {
          "internalType": "uint256",
          "name": "newPrice",
          "type": "uint256"
        }
      ],
      "name": "buy",
      "outputs": [],
      "stateMutability": "payable",
      "type": "function"
    },
    {
      "inputs": [
        {
          "internalType": "uint256",
          "name": "tokenId",
          "type": "uint256"
        }
      ],
      "name": "canReclaim",
      "outputs": [
        {
          "internalType": "bool",
          "name": "",
          "type": "bool"
        }
      ],
      "stateMutability": "view",
      "type": "function"
    },
    {
      "inputs": [
        {
          "internalType": "uint256",
          "name": "tokenId",
          "type": "uint256"
        }
      ],
      "name": "collect",
      "outputs": [],
      "stateMutability": "nonpayable",
      "type": "function"
    },
    {
      "inputs": [
        {
          "internalType": "uint256",
          "name": "tokenId",
          "type": "uint256"
        }
      ],
      "name": "creatorOf",
      "outputs": [
        {
          "internalType": "address",
          "name": "",
          "type": "address"
        }
      ],
      "stateMutability": "view",
      "type": "function"
    },
    {
      "inputs": [
        {
          "internalType": "uint256",
          "name": "tokenId",
          "type": "uint256"
        }
      ],
      "name": "deposit",
      "outputs": [],
      "stateMutability": "payable",
      "type": "function"
    },
    {
      "inputs": [
        {
          "internalType": "uint256",
          "name": "tokenId",
          "type": "uint256"
        }
      ],
      "name": "exists",
      "outputs": [
        {
          "internalType": "bool",
          "name": "",
          "type": "bool"
        }
      ],
      "stateMutability": "view",
      "type": "function"
    },
    {
      "inputs": [
        {
          "internalType": "uint256",
          "name": "tokenId",
          "type": "uint256"
        }
      ],
      "name": "getApproved",
      "outputs": [
        {
          "internalType": "address",
          "name": "",
          "type": "address"
        }
      ],
      "stateMutability": "view",
      "type": "function"
    },
    {
      "inputs": [
        {
          "internalType": "uint256",
          "name": "tokenId",
          "type": "uint256"
        }
      ],
      "name": "info",
      "outputs": [
        {
          "internalType": "address",
          "name": "",
          "type": "address"
        },
        {
          "internalType": "address",
          "name": "",
          "type": "address"
        },
        {
          "internalType": "uint256",
          "name": "",
          "type": "uint256"
        },
        {
          "internalType": "uint256",
          "name": "",
          "type": "uint256"
        },
        {
          "internalType": "bool",
          "name": "",
          "type": "bool"
        }
      ],
      "stateMutability": "view",
      "type": "function"
    },
    {
      "inputs": [
        {
          "internalType": "address",
          "name": "owner",
          "type": "address"
        },
        {
          "internalType": "address",
          "name": "operator",
          "type": "address"
        }
      ],
      "name": "isApprovedForAll",
      "outputs": [
        {
          "internalType": "bool",
          "name": "",
          "type": "bool"
        }
      ],
      "stateMutability": "view",
      "type": "function"
    },
    {
      "inputs": [
        {
          "internalType": "uint256",
          "name": "tokenId",
          "type": "uint256"
        },
        {
          "internalType": "string",
          "name": "tokenURI",
          "type": "string"
        }
      ],
      "name": "mint",
      "outputs": [
        {
          "internalType": "bool",
          "name": "",
          "type": "bool"
        }
      ],
      "stateMutability": "nonpayable",
      "type": "function"
    },
    {
      "inputs": [],
      "name": "name",
      "outputs": [
        {
          "internalType": "string",
          "name": "",
          "type": "string"
        }
      ],
      "stateMutability": "view",
      "type": "function"
    },
    {
      "inputs": [
        {
          "internalType": "uint256",
          "name": "tokenId",
          "type": "uint256"
        }
      ],
      "name": "ownerOf",
      "outputs": [
        {
          "internalType": "address",
          "name": "",
          "type": "address"
        }
      ],
      "stateMutability": "view",
      "type": "function"
    },
    {
      "inputs": [
        {
          "internalType": "uint256",
          "name": "",
          "type": "uint256"
        }
      ],
      "name": "paidThru",
      "outputs": [
        {
          "internalType": "uint256",
          "name": "",
          "type": "uint256"
        }
      ],
      "stateMutability": "view",
      "type": "function"
    },
    {
      "inputs": [
        {
          "internalType": "uint256",
          "name": "",
          "type": "uint256"
        }
      ],
      "name": "prices",
      "outputs": [
        {
          "internalType": "uint256",
          "name": "",
          "type": "uint256"
        }
      ],
      "stateMutability": "view",
      "type": "function"
    },
    {
      "inputs": [
        {
          "internalType": "uint256",
          "name": "tokenId",
          "type": "uint256"
        }
      ],
      "name": "reclaim",
      "outputs": [],
      "stateMutability": "nonpayable",
      "type": "function"
    },
    {
      "inputs": [
        {
          "internalType": "address",
          "name": "from",
          "type": "address"
        },
        {
          "internalType": "address",
          "name": "to",
          "type": "address"
        },
        {
          "internalType": "uint256",
          "name": "tokenId",
          "type": "uint256"
        }
      ],
      "name": "safeTransferFrom",
      "outputs": [],
      "stateMutability": "nonpayable",
      "type": "function"
    },
    {
      "inputs": [
        {
          "internalType": "address",
          "name": "from",
          "type": "address"
        },
        {
          "internalType": "address",
          "name": "to",
          "type": "address"
        },
        {
          "internalType": "uint256",
          "name": "tokenId",
          "type": "uint256"
        },
        {
          "internalType": "bytes",
          "name": "_data",
          "type": "bytes"
        }
      ],
      "name": "safeTransferFrom",
      "outputs": [],
      "stateMutability": "nonpayable",
      "type": "function"
    },
    {
      "inputs": [
        {
          "internalType": "address",
          "name": "to",
          "type": "address"
        },
        {
          "internalType": "bool",
          "name": "approved",
          "type": "bool"
        }
      ],
      "name": "setApprovalForAll",
      "outputs": [],
      "stateMutability": "nonpayable",
      "type": "function"
    },
    {
      "inputs": [
        {
          "internalType": "uint256",
          "name": "tokenId",
          "type": "uint256"
        },
        {
          "internalType": "uint256",
          "name": "newPrice",
          "type": "uint256"
        }
      ],
      "name": "setPrice",
      "outputs": [],
      "stateMutability": "nonpayable",
      "type": "function"
    },
    {
      "inputs": [
        {
          "internalType": "bytes4",
          "name": "interfaceId",
          "type": "bytes4"
        }
      ],
      "name": "supportsInterface",
      "outputs": [
        {
          "internalType": "bool",
          "name": "",
          "type": "bool"
        }
      ],
      "stateMutability": "view",
      "type": "function"
    },
    {
      "inputs": [],
      "name": "symbol",
      "outputs": [
        {
          "internalType": "string",
          "name": "",
          "type": "string"
        }
      ],
      "stateMutability": "view",
      "type": "function"
    },
    {
      "inputs": [
        {
          "internalType": "uint256",
          "name": "tokenId",
          "type": "uint256"
        }
      ],
      "name": "taxOwed",
      "outputs": [
        {
          "internalType": "uint256",
          "name": "",
          "type": "uint256"
        }
      ],
      "stateMutability": "view",
      "type": "function"
    },
    {
      "inputs": [
        {
          "internalType": "uint256",
          "name": "",
          "type": "uint256"
        }
      ],
      "name": "taxes",
      "outputs": [
        {
          "internalType": "uint256",
          "name": "",
          "type": "uint256"
        }
      ],
      "stateMutability": "view",
      "type": "function"
    },
    {
      "inputs": [
        {
          "internalType": "uint256",
          "name": "index",
          "type": "uint256"
        }
      ],
      "name": "tokenByIndex",
      "outputs": [
        {
          "internalType": "uint256",
          "name": "",
          "type": "uint256"
        }
      ],
      "stateMutability": "view",
      "type": "function"
    },
    {
      "inputs": [
        {
          "internalType": "address",
          "name": "owner",
          "type": "address"
        },
        {
          "internalType": "uint256",
          "name": "index",
          "type": "uint256"
        }
      ],
      "name": "tokenOfOwnerByIndex",
      "outputs": [
        {
          "internalType": "uint256",
          "name": "",
          "type": "uint256"
        }
      ],
      "stateMutability": "view",
      "type": "function"
    },
    {
      "inputs": [
        {
          "internalType": "uint256",
          "name": "tokenId",
          "type": "uint256"
        }
      ],
      "name": "tokenURI",
      "outputs": [
        {
          "internalType": "string",
          "name": "",
          "type": "string"
        }
      ],
      "stateMutability": "view",
      "type": "function"
    },
    {
      "inputs": [
        {
          "internalType": "address",
          "name": "creator",
          "type": "address"
        }
      ],
      "name": "tokensOfCreator",
      "outputs": [
        {
          "internalType": "uint256[]",
          "name": "",
          "type": "uint256[]"
        }
      ],
      "stateMutability": "view",
      "type": "function"
    },
    {
      "inputs": [
        {
          "internalType": "address",
          "name": "owner",
          "type": "address"
        }
      ],
      "name": "tokensOfOwner",
      "outputs": [
        {
          "internalType": "uint256[]",
          "name": "",
          "type": "uint256[]"
        }
      ],
      "stateMutability": "view",
      "type": "function"
    },
    {
      "inputs": [],
      "name": "totalSupply",
      "outputs": [
        {
          "internalType": "uint256",
          "name": "",
          "type": "uint256"
        }
      ],
      "stateMutability": "view",
      "type": "function"
    },
    {
      "inputs": [
        {
          "internalType": "address",
          "name": "",
          "type": "address"
        },
        {
          "internalType": "address",
          "name": "",
          "type": "address"
        },
        {
          "internalType": "uint256",
          "name": "",
          "type": "uint256"
        }
      ],
      "name": "transferFrom",
      "outputs": [],
      "stateMutability": "pure",
      "type": "function"
    }
  ],
  "bytecode": "0x60806040523480156200001157600080fd5b506040518060400160405280600a8152602001690536369656e63652049560b41b81525060405180604001604052806005815260200164125413919560da1b8152508181818181600090805190602001906200006f9291906200012b565b508051620000859060019060208401906200012b565b506200009f935063780e9d6360e01b925050620000a79050565b50506200020e565b6001600160e01b03198082161415620001065760405162461bcd60e51b815260206004820152601c60248201527f4552433136353a20696e76616c696420696e7465726661636520696400000000604482015260640160405180910390fd5b6001600160e01b0319166000908152600760205260409020805460ff19166001179055565b8280546200013990620001d1565b90600052602060002090601f0160209004810192826200015d5760008555620001a8565b82601f106200017857805160ff1916838001178555620001a8565b82800160010185558215620001a8579182015b82811115620001a85782518255916020019190600101906200018b565b50620001b6929150620001ba565b5090565b5b80821115620001b65760008155600101620001bb565b600181811c90821680620001e657607f821691505b602082108114156200020857634e487b7160e01b600052602260045260246000fd5b50919050565b612571806200021e6000396000f3fe6080604052600436106101e35760003560e01c80638462151c11610102578063b88d4fde11610095578063ce3f865f11610064578063ce3f865f146105ff578063d6febde81461061f578063e985e9c514610632578063f7d975771461067b57600080fd5b8063b88d4fde14610565578063bc31c1c114610585578063c5be2bc7146105b2578063c87b56dd146105df57600080fd5b80639c8b0a15116100d15780639c8b0a15146104f2578063a22cb46514610512578063b0c6e22814610532578063b6b55f251461055257600080fd5b80638462151c1461046357806395d89b411461049057806395db8e38146104a557806396cc6a34146104d257600080fd5b80632f745c591161017a578063589a174311610149578063589a1743146103cd5780636352211e146103ed57806370a082311461042357806377097fc81461044357600080fd5b80632f745c591461034d57806342842e0e1461036d5780634f558e791461038d5780634f6ccce7146103ad57600080fd5b806318160ddd116101b657806318160ddd1461029957806323b872dd146102b85780632dabbeed146102d85780632e340599146102f857600080fd5b806301ffc9a7146101e857806306fdde031461021d578063081812fc1461023f578063095ea7b314610277575b600080fd5b3480156101f457600080fd5b50610208610203366004612233565b61069b565b60405190151581526020015b60405180910390f35b34801561022957600080fd5b506102326106c6565b60405161021491906123d8565b34801561024b57600080fd5b5061025f61025a36600461226b565b610758565b6040516001600160a01b039091168152602001610214565b34801561028357600080fd5b5061029761029236600461220a565b6107e5565b005b3480156102a557600080fd5b50600e545b604051908152602001610214565b3480156102c457600080fd5b506102976102d336600461211c565b610963565b3480156102e457600080fd5b506102976102f336600461226b565b6109a0565b34801561030457600080fd5b5061031861031336600461226b565b610a31565b604080516001600160a01b0396871681529590941660208601529284019190915260608301521515608082015260a001610214565b34801561035957600080fd5b506102aa61036836600461220a565b610a91565b34801561037957600080fd5b5061029761038836600461211c565b610b49565b34801561039957600080fd5b506102086103a836600461226b565b610b69565b3480156103b957600080fd5b506102aa6103c836600461226b565b610b74565b3480156103d957600080fd5b5061025f6103e836600461226b565b610c15565b3480156103f957600080fd5b5061025f61040836600461226b565b6000908152600860205260409020546001600160a01b031690565b34801561042f57600080fd5b506102aa61043e3660046120d0565b610c8e565b34801561044f57600080fd5b5061020861045e366004612283565b610d17565b34801561046f57600080fd5b5061048361047e3660046120d0565b610dd0565b6040516102149190612394565b34801561049c57600080fd5b50610232610e46565b3480156104b157600080fd5b506102aa6104c036600461226b565b60146020526000908152604090205481565b3480156104de57600080fd5b506104836104ed3660046120d0565b610e55565b3480156104fe57600080fd5b506102aa61050d36600461226b565b610e75565b34801561051e57600080fd5b5061029761052d3660046121d0565b610ecf565b34801561053e57600080fd5b5061020861054d36600461226b565b610f94565b61029761056036600461226b565b610fed565b34801561057157600080fd5b50610297610580366004612157565b61116f565b34801561059157600080fd5b506102aa6105a036600461226b565b60136020526000908152604090205481565b3480156105be57600080fd5b506102aa6105cd36600461226b565b60126020526000908152604090205481565b3480156105eb57600080fd5b506102326105fa36600461226b565b6111f3565b34801561060b57600080fd5b5061029761061a36600461226b565b61136a565b61029761062d3660046122db565b611522565b34801561063e57600080fd5b5061020861064d3660046120ea565b6001600160a01b039182166000908152600b6020908152604080832093909416825291909152205460ff1690565b34801561068757600080fd5b506102976106963660046122db565b611736565b60006001600160e01b031982166380ac58cd60e01b14806106c057506106c0826118ae565b92915050565b6060600080546106d590612479565b80601f016020809104026020016040519081016040528092919081815260200182805461070190612479565b801561074e5780601f106107235761010080835404028352916020019161074e565b820191906000526020600020905b81548152906001019060200180831161073157829003601f168201915b5050505050905090565b6000610763826118df565b6107c95760405162461bcd60e51b815260206004820152602c60248201527f4552433732313a20617070726f76656420717565727920666f72206e6f6e657860448201526b34b9ba32b73a103a37b5b2b760a11b60648201526084015b60405180910390fd5b506000908152600960205260409020546001600160a01b031690565b6000818152600860205260409020546001600160a01b0390811690831681141561085b5760405162461bcd60e51b815260206004820152602160248201527f4552433732313a20617070726f76616c20746f2063757272656e74206f776e656044820152603960f91b60648201526084016107c0565b336001600160a01b038216148061089557506001600160a01b0381166000908152600b6020908152604080832033845290915290205460ff165b6109075760405162461bcd60e51b815260206004820152603860248201527f4552433732313a20617070726f76652063616c6c6572206973206e6f74206f7760448201527f6e6572206e6f7220617070726f76656420666f7220616c6c000000000000000060648201526084016107c0565b60008281526009602052604080822080546001600160a01b0319166001600160a01b0387811691821790925591518593918516917f8c5be1e5ebec7d5bd14f71427d1e84f3dd0314c0f7b2291e5b200ac8c7c3b92591a4505050565b60405162461bcd60e51b81526020600482015260126024820152712737b716aa3930b739b332b93930b136329760711b60448201526064016107c0565b6109a981610f94565b15610a2e576000818152600860205260408120546109d29183916001600160a01b0316906118fc565b6000818152601360209081526040808320839055601282528083208390556014825291829020429055905133815282917fad9cdcb2840b4617f049a64be1811ef181a6c0925da58f0a537a37c93052bdd3910160405180910390a25b50565b600080600080600080610a4387610c15565b60008881526008602090815260408083205460128352818420546013909352908320549394506001600160a01b0316929091610a7e8b610f94565b949b939a50919850965091945092505050565b6000610a9c83610c8e565b8210610afe5760405162461bcd60e51b815260206004820152602b60248201527f455243373231456e756d657261626c653a206f776e657220696e646578206f7560448201526a74206f6620626f756e647360a81b60648201526084016107c0565b6001600160a01b0383166000908152600c60205260409020805483908110610b3657634e487b7160e01b600052603260045260246000fd5b9060005260206000200154905092915050565b610b648383836040518060200160405280600081525061116f565b505050565b60006106c0826118df565b6000610b7f600e5490565b8210610be25760405162461bcd60e51b815260206004820152602c60248201527f455243373231456e756d657261626c653a20676c6f62616c20696e646578206f60448201526b7574206f6620626f756e647360a01b60648201526084016107c0565b600e8281548110610c0357634e487b7160e01b600052603260045260246000fd5b90600052602060002001549050919050565b6000818152601160205260408120546001600160a01b0316806106c05760405162461bcd60e51b815260206004820152602b60248201527f4552433732313a2063726561746f7220717565727920666f72206e6f6e65786960448201526a39ba32b73a103a37b5b2b760a91b60648201526084016107c0565b60006001600160a01b038216610cf95760405162461bcd60e51b815260206004820152602a60248201527f4552433732313a2062616c616e636520717565727920666f7220746865207a65604482015269726f206164647265737360b01b60648201526084016107c0565b6001600160a01b0382166000908152600a60205260409020546106c0565b600033610d248185611937565b610d2e8484611997565b6001600160a01b03811660008181526010602090815260408083208054600181018255908452828420018890558783526011825280832080546001600160a01b0319168517905560138252808320839055601282528083208390556014825291829020429055905191825285917fb9203d657e9c0ec8274c818292ab0f58b04e1970050716891770eb1bab5d655e910160405180910390a25060019392505050565b6060610df0826001600160a01b03166000908152600c6020526040902090565b805480602002602001604051908101604052809291908181526020018280548015610e3a57602002820191906000526020600020905b815481526020019060010190808311610e26575b50505050509050919050565b6060600180546106d590612479565b6060610df0826001600160a01b0316600090815260106020526040902090565b6000818152601360209081526040808320546014909252822054600190610e9c9042612436565b612710610eaa60fa85612417565b610eb49190612403565b610ebe9190612417565b610ec89190612403565b9392505050565b6001600160a01b038216331415610f285760405162461bcd60e51b815260206004820152601960248201527f4552433732313a20617070726f766520746f2063616c6c65720000000000000060448201526064016107c0565b336000818152600b602090815260408083206001600160a01b03871680855290835292819020805460ff191686151590811790915590519081529192917f17307eab39ab6107e8899845ad3d59bd9653f200f220920489ca2b5937696c31910160405180910390a35050565b6000818152600860205260408120546001600160a01b031615801590610fc7575060008281526013602052604090205415155b80156106c05750600082815260126020526040902054610fe683610e75565b1192915050565b80610ff781610b69565b61103a5760405162461bcd60e51b81526020600482015260146024820152732a37b5b2b7103237b2b9b713ba1032bc34b9ba1760611b60448201526064016107c0565b6000818152600860205260409020546001600160a01b031633146110a05760405162461bcd60e51b815260206004820152601d60248201527f43616c6c6572206973206e6f742074686520746f6b656e206f776e657200000060448201526064016107c0565b34806110ab84610e75565b111561110c5760405162461bcd60e51b815260206004820152602a60248201527f4d757374206465706f73697420656e6f75676820746178657320746f20636f7660448201526932b9103ab73830b4b21760b11b60648201526084016107c0565b6000838152601260205260408120805483929061112a9084906123eb565b90915550506040805182815233602082015284917ffaddc2a572d923daf0944fe20bf804595e90ca57c85045b1081d338d1510bf1491015b60405180910390a2505050565b61117a848484610963565b61118684848484611a22565b6111ed5760405162461bcd60e51b815260206004820152603260248201527f4552433732313a207472616e7366657220746f206e6f6e20455243373231526560448201527131b2b4bb32b91034b6b83632b6b2b73a32b960711b60648201526084016107c0565b50505050565b60606111fe826118df565b6112645760405162461bcd60e51b815260206004820152603160248201527f45524337323155524953746f726167653a2055524920717565727920666f72206044820152703737b732bc34b9ba32b73a103a37b5b2b760791b60648201526084016107c0565b6000828152600660205260408120805461127d90612479565b80601f01602080910402602001604051908101604052809291908181526020018280546112a990612479565b80156112f65780601f106112cb576101008083540402835291602001916112f6565b820191906000526020600020905b8154815290600101906020018083116112d957829003601f168201915b50505050509050600061131460408051602081019091526000815290565b9050805160001415611327575092915050565b815115611359578082604051602001611341929190612328565b60405160208183030381529060405292505050919050565b61136284611ae0565b949350505050565b600061137582610e75565b9050600061138283610c15565b600084815260126020526040902054909150808311156114735760008481526012602090815260408083208390556014909152902054839082906113c69042612436565b6113d09190612417565b6113da9190612403565b600085815260146020526040812080549091906113f89084906123eb565b90915550506040805182815233602082015285917fb0de109099d11f8674e8f0213cf49c17049064e696cab228f29e213bbbf11ca1910160405180910390a26040516001600160a01b0383169082156108fc029083906000818181858888f1935050505015801561146d573d6000803e3d6000fd5b506111ed565b60008481526012602052604081208054859290611491908490612436565b90915550506000848152601460209081526040918290204290558151858152339181019190915285917fb0de109099d11f8674e8f0213cf49c17049064e696cab228f29e213bbbf11ca1910160405180910390a26040516001600160a01b0383169084156108fc029085906000818181858888f1935050505015801561151b573d6000803e3d6000fd5b5050505050565b3461152c8361136a565b611535836109a0565b600083815260136020526040902054808210156115945760405162461bcd60e51b815260206004820152601960248201527f496e73756666696369656e7420616d6f756e7420706169642e0000000000000060448201526064016107c0565b6000848152600860205260409020546001600160a01b0316338114156115fc5760405162461bcd60e51b815260206004820152601a60248201527f596f752061726520616c726561647920746865206f776e65722e00000000000060448201526064016107c0565b600085815260126020526040812054829133906116198688612436565b60008a81526012602090815260408083208490556014909152902042905590506116448986846118fc565b6000898152601360209081526040918290208a905581518981529081018890526001600160a01b0384168183015290518a917fd21eae8951428a60d9f3ffb404fd001bb184d3b970d95351f4affb9c57778f7c919081900360600190a260006116ad87856123eb565b604080518281526001600160a01b03881660208201529192508b917fe5fd53654bc4ea55a3106f8f2bd57252875afee33cc027448099373ae65408f6910160405180910390a26040516001600160a01b0386169082156108fc029083906000818181858888f19350505050158015611729573d6000803e3d6000fd5b5050505050505050505050565b8161174081610b69565b6117835760405162461bcd60e51b81526020600482015260146024820152732a37b5b2b7103237b2b9b713ba1032bc34b9ba1760611b60448201526064016107c0565b6000818152600860205260409020546001600160a01b031633146117e95760405162461bcd60e51b815260206004820152601d60248201527f43616c6c6572206973206e6f742074686520746f6b656e206f776e657200000060448201526064016107c0565b6117f28361136a565b6117fb83610f94565b156118625760405162461bcd60e51b815260206004820152603160248201527f4d7573742066756c6c7920706179207461786573206669727374206265666f72604482015270329031b430b733b4b73390383934b1b29760791b60648201526084016107c0565b6000838152601360209081526040918290208490558151848152339181019190915284917f378b09391f49d01e482ba75312341912ad0652cb8aa8799b6b33b624bd65d9f29101611162565b60006118b982611bb7565b806106c05750506001600160e01b03191660009081526007602052604090205460ff1690565b6000908152600860205260409020546001600160a01b0316151590565b6119068284611c07565b600083815260086020526040902080546001600160a01b0319166001600160a01b038316179055610b648184611d0f565b6119418282611d4d565b61194b8282611d0f565b61199381600e80546000838152600f60205260408120829055600182018355919091527fbb7b4a454dc3493923482f07822329ed19e8244eff582cc204f8554c3620c3fd0155565b5050565b6119a0826118df565b611a035760405162461bcd60e51b815260206004820152602e60248201527f45524337323155524953746f726167653a2055524920736574206f66206e6f6e60448201526d32bc34b9ba32b73a103a37b5b2b760911b60648201526084016107c0565b60008281526006602090815260409091208251610b6492840190611f8b565b60006001600160a01b0384163b611a3b57506001611362565b604051630a85bd0160e11b81526000906001600160a01b0386169063150b7a0290611a709033908a9089908990600401612357565b602060405180830381600087803b158015611a8a57600080fd5b505af1158015611a9e573d6000803e3d6000fd5b505050506040513d601f19601f82011682018060405250810190611ac2919061224f565b6001600160e01b031916630a85bd0160e11b14915050949350505050565b6060611aeb826118df565b611b4f5760405162461bcd60e51b815260206004820152602f60248201527f4552433732314d657461646174613a2055524920717565727920666f72206e6f60448201526e3732bc34b9ba32b73a103a37b5b2b760891b60648201526084016107c0565b6000611b6660408051602081019091526000815290565b90506000815111611b865760405180602001604052806000815250610ec8565b80611b9084611e65565b604051602001611ba1929190612328565b6040516020818303038152906040529392505050565b60006001600160e01b031982166380ac58cd60e01b1480611be857506001600160e01b03198216635b5e139f60e01b145b806106c057506301ffc9a760e01b6001600160e01b03198316146106c0565b6001600160a01b0382166000908152600c6020526040812054611c2b906001611f7f565b6000838152600d6020526040902054909150808214611cee576001600160a01b0384166000908152600c60205260408120805484908110611c7c57634e487b7160e01b600052603260045260246000fd5b9060005260206000200154905080600c6000876001600160a01b03166001600160a01b031681526020019081526020016000208381548110611cce57634e487b7160e01b600052603260045260246000fd5b6000918252602080832090910192909255918252600d9052604090208190555b6001600160a01b0384166000908152600c602052604081206111ed9161200f565b6001600160a01b039091166000908152600c602081815260408084208054868652600d84529185208290559282526001810183559183529091200155565b6001600160a01b038216611da35760405162461bcd60e51b815260206004820181905260248201527f4552433732313a206d696e7420746f20746865207a65726f206164647265737360448201526064016107c0565b611dac816118df565b15611df95760405162461bcd60e51b815260206004820152601c60248201527f4552433732313a20746f6b656e20616c7265616479206d696e7465640000000060448201526064016107c0565b600081815260086020908152604080832080546001600160a01b0319166001600160a01b038716908117909155808452600a90925280832080546001019055518392907fddf252ad1be2c89b69c2b068fc378daa952ba7f163c4a11628f55a4df523b3ef908290a45050565b606081611e895750506040805180820190915260018152600360fc1b602082015290565b8160005b8115611eb35780611e9d816124b4565b9150611eac9050600a83612403565b9150611e8d565b60008167ffffffffffffffff811115611edc57634e487b7160e01b600052604160045260246000fd5b6040519080825280601f01601f191660200182016040528015611f06576020820181803683370190505b5090505b841561136257611f1b600183612436565b9150611f28600a866124cf565b611f339060306123eb565b60f81b818381518110611f5657634e487b7160e01b600052603260045260246000fd5b60200101906001600160f81b031916908160001a905350611f78600a86612403565b9450611f0a565b6000610ec88284612436565b828054611f9790612479565b90600052602060002090601f016020900481019282611fb95760008555611fff565b82601f10611fd257805160ff1916838001178555611fff565b82800160010185558215611fff579182015b82811115611fff578251825591602001919060010190611fe4565b5061200b929150612029565b5090565b5080546000825590600052602060002090810190610a2e91905b5b8082111561200b576000815560010161202a565b600067ffffffffffffffff808411156120595761205961250f565b604051601f8501601f19908116603f011681019082821181831017156120815761208161250f565b8160405280935085815286868601111561209a57600080fd5b858560208301376000602087830101525050509392505050565b80356001600160a01b03811681146120cb57600080fd5b919050565b6000602082840312156120e1578081fd5b610ec8826120b4565b600080604083850312156120fc578081fd5b612105836120b4565b9150612113602084016120b4565b90509250929050565b600080600060608486031215612130578081fd5b612139846120b4565b9250612147602085016120b4565b9150604084013590509250925092565b6000806000806080858703121561216c578081fd5b612175856120b4565b9350612183602086016120b4565b925060408501359150606085013567ffffffffffffffff8111156121a5578182fd5b8501601f810187136121b5578182fd5b6121c48782356020840161203e565b91505092959194509250565b600080604083850312156121e2578182fd5b6121eb836120b4565b9150602083013580151581146121ff578182fd5b809150509250929050565b6000806040838503121561221c578182fd5b612225836120b4565b946020939093013593505050565b600060208284031215612244578081fd5b8135610ec881612525565b600060208284031215612260578081fd5b8151610ec881612525565b60006020828403121561227c578081fd5b5035919050565b60008060408385031215612295578182fd5b82359150602083013567ffffffffffffffff8111156122b2578182fd5b8301601f810185136122c2578182fd5b6122d18582356020840161203e565b9150509250929050565b600080604083850312156122ed578182fd5b50508035926020909101359150565b6000815180845261231481602086016020860161244d565b601f01601f19169290920160200192915050565b6000835161233a81846020880161244d565b83519083019061234e81836020880161244d565b01949350505050565b6001600160a01b038581168252841660208201526040810183905260806060820181905260009061238a908301846122fc565b9695505050505050565b6020808252825182820181905260009190848201906040850190845b818110156123cc578351835292840192918401916001016123b0565b50909695505050505050565b602081526000610ec860208301846122fc565b600082198211156123fe576123fe6124e3565b500190565b600082612412576124126124f9565b500490565b6000816000190483118215151615612431576124316124e3565b500290565b600082821015612448576124486124e3565b500390565b60005b83811015612468578181015183820152602001612450565b838111156111ed5750506000910152565b600181811c9082168061248d57607f821691505b602082108114156124ae57634e487b7160e01b600052602260045260246000fd5b50919050565b60006000198214156124c8576124c86124e3565b5060010190565b6000826124de576124de6124f9565b500690565b634e487b7160e01b600052601160045260246000fd5b634e487b7160e01b600052601260045260246000fd5b634e487b7160e01b600052604160045260246000fd5b6001600160e01b031981168114610a2e57600080fdfea26469706673582212204e182b43a95e6fbfe3fb3aef3beaf9babd65c40421b38902d2573adf286dff3964736f6c63430008040033",
  "linkReferences": {},
  "deployedLinkReferences": {}
}