{
  "_format": "hh-sol-artifact-1",
  "contractName": "NFT",
  "sourceName": "contracts/NFT.sol",
  "abi": [
    {
      "inputs": [
        {
          "internalType": "address",
          "name": "owner",
          "type": "address"
        },
        {
          "internalType": "address",
          "name": "defaultRoyaltyRecipient",
          "type": "address"
        },
        {
          "internalType": "uint256",
          "name": "defaultRoyaltyFeeBasisPoints",
          "type": "uint256"
        }
      ],
      "stateMutability": "nonpayable",
      "type": "constructor"
    },
    {
      "anonymous": false,
      "inputs": [
        {
          "indexed": true,
          "internalType": "address",
          "name": "owner",
          "type": "address"
        },
        {
          "indexed": true,
          "internalType": "address",
          "name": "approved",
          "type": "address"
        },
        {
          "indexed": true,
          "internalType": "uint256",
          "name": "tokenId",
          "type": "uint256"
        }
      ],
      "name": "Approval",
      "type": "event"
    },
    {
      "anonymous": false,
      "inputs": [
        {
          "indexed": true,
          "internalType": "address",
          "name": "owner",
          "type": "address"
        },
        {
          "indexed": true,
          "internalType": "address",
          "name": "operator",
          "type": "address"
        },
        {
          "indexed": false,
          "internalType": "bool",
          "name": "approved",
          "type": "bool"
        }
      ],
      "name": "ApprovalForAll",
      "type": "event"
    },
    {
      "anonymous": false,
      "inputs": [
        {
          "indexed": true,
          "internalType": "uint256",
          "name": "tokenId",
          "type": "uint256"
        },
        {
          "indexed": false,
          "internalType": "string",
          "name": "tokenURI",
          "type": "string"
        }
      ],
      "name": "NFTMinted",
      "type": "event"
    },
    {
      "anonymous": false,
      "inputs": [
        {
          "indexed": true,
          "internalType": "address",
          "name": "previousOwner",
          "type": "address"
        },
        {
          "indexed": true,
          "internalType": "address",
          "name": "newOwner",
          "type": "address"
        }
      ],
      "name": "OwnershipTransferred",
      "type": "event"
    },
    {
      "anonymous": false,
      "inputs": [
        {
          "indexed": true,
          "internalType": "address",
          "name": "from",
          "type": "address"
        },
        {
          "indexed": true,
          "internalType": "address",
          "name": "to",
          "type": "address"
        },
        {
          "indexed": true,
          "internalType": "uint256",
          "name": "tokenId",
          "type": "uint256"
        }
      ],
      "name": "Transfer",
      "type": "event"
    },
    {
      "inputs": [
        {
          "internalType": "address",
          "name": "to",
          "type": "address"
        },
        {
          "internalType": "uint256",
          "name": "tokenId",
          "type": "uint256"
        }
      ],
      "name": "approve",
      "outputs": [],
      "stateMutability": "nonpayable",
      "type": "function"
    },
    {
      "inputs": [
        {
          "internalType": "address",
          "name": "owner",
          "type": "address"
        }
      ],
      "name": "balanceOf",
      "outputs": [
        {
          "internalType": "uint256",
          "name": "",
          "type": "uint256"
        }
      ],
      "stateMutability": "view",
      "type": "function"
    },
    {
      "inputs": [
        {
          "internalType": "string",
          "name": "tokenURI",
          "type": "string"
        }
      ],
      "name": "createToken",
      "outputs": [
        {
          "internalType": "uint256",
          "name": "",
          "type": "uint256"
        }
      ],
      "stateMutability": "nonpayable",
      "type": "function"
    },
    {
      "inputs": [
        {
          "internalType": "uint256",
          "name": "tokenId",
          "type": "uint256"
        }
      ],
      "name": "getApproved",
      "outputs": [
        {
          "internalType": "address",
          "name": "",
          "type": "address"
        }
      ],
      "stateMutability": "view",
      "type": "function"
    },
    {
      "inputs": [
        {
          "internalType": "address",
          "name": "owner",
          "type": "address"
        },
        {
          "internalType": "address",
          "name": "operator",
          "type": "address"
        }
      ],
      "name": "isApprovedForAll",
      "outputs": [
        {
          "internalType": "bool",
          "name": "",
          "type": "bool"
        }
      ],
      "stateMutability": "view",
      "type": "function"
    },
    {
      "inputs": [],
      "name": "maxSupply",
      "outputs": [
        {
          "internalType": "uint256",
          "name": "",
          "type": "uint256"
        }
      ],
      "stateMutability": "view",
      "type": "function"
    },
    {
      "inputs": [],
      "name": "name",
      "outputs": [
        {
          "internalType": "string",
          "name": "",
          "type": "string"
        }
      ],
      "stateMutability": "view",
      "type": "function"
    },
    {
      "inputs": [],
      "name": "owner",
      "outputs": [
        {
          "internalType": "address",
          "name": "",
          "type": "address"
        }
      ],
      "stateMutability": "view",
      "type": "function"
    },
    {
      "inputs": [
        {
          "internalType": "uint256",
          "name": "tokenId",
          "type": "uint256"
        }
      ],
      "name": "ownerOf",
      "outputs": [
        {
          "internalType": "address",
          "name": "",
          "type": "address"
        }
      ],
      "stateMutability": "view",
      "type": "function"
    },
    {
      "inputs": [],
      "name": "renounceOwnership",
      "outputs": [],
      "stateMutability": "nonpayable",
      "type": "function"
    },
    {
      "inputs": [
        {
          "internalType": "uint256",
          "name": "_tokenId",
          "type": "uint256"
        },
        {
          "internalType": "uint256",
          "name": "_salePrice",
          "type": "uint256"
        }
      ],
      "name": "royaltyInfo",
      "outputs": [
        {
          "internalType": "address",
          "name": "receiver",
          "type": "address"
        },
        {
          "internalType": "uint256",
          "name": "royaltyAmount",
          "type": "uint256"
        }
      ],
      "stateMutability": "view",
      "type": "function"
    },
    {
      "inputs": [
        {
          "internalType": "address",
          "name": "from",
          "type": "address"
        },
        {
          "internalType": "address",
          "name": "to",
          "type": "address"
        },
        {
          "internalType": "uint256",
          "name": "tokenId",
          "type": "uint256"
        }
      ],
      "name": "safeTransferFrom",
      "outputs": [],
      "stateMutability": "nonpayable",
      "type": "function"
    },
    {
      "inputs": [
        {
          "internalType": "address",
          "name": "from",
          "type": "address"
        },
        {
          "internalType": "address",
          "name": "to",
          "type": "address"
        },
        {
          "internalType": "uint256",
          "name": "tokenId",
          "type": "uint256"
        },
        {
          "internalType": "bytes",
          "name": "_data",
          "type": "bytes"
        }
      ],
      "name": "safeTransferFrom",
      "outputs": [],
      "stateMutability": "nonpayable",
      "type": "function"
    },
    {
      "inputs": [
        {
          "internalType": "address",
          "name": "operator",
          "type": "address"
        },
        {
          "internalType": "bool",
          "name": "approved",
          "type": "bool"
        }
      ],
      "name": "setApprovalForAll",
      "outputs": [],
      "stateMutability": "nonpayable",
      "type": "function"
    },
    {
      "inputs": [
        {
          "internalType": "address",
          "name": "newRecipient",
          "type": "address"
        }
      ],
      "name": "setRoyalties",
      "outputs": [],
      "stateMutability": "nonpayable",
      "type": "function"
    },
    {
      "inputs": [
        {
          "internalType": "bytes4",
          "name": "interfaceId",
          "type": "bytes4"
        }
      ],
      "name": "supportsInterface",
      "outputs": [
        {
          "internalType": "bool",
          "name": "",
          "type": "bool"
        }
      ],
      "stateMutability": "view",
      "type": "function"
    },
    {
      "inputs": [],
      "name": "symbol",
      "outputs": [
        {
          "internalType": "string",
          "name": "",
          "type": "string"
        }
      ],
      "stateMutability": "view",
      "type": "function"
    },
    {
      "inputs": [
        {
          "internalType": "uint256",
          "name": "tokenId",
          "type": "uint256"
        }
      ],
      "name": "tokenURI",
      "outputs": [
        {
          "internalType": "string",
          "name": "",
          "type": "string"
        }
      ],
      "stateMutability": "view",
      "type": "function"
    },
    {
      "inputs": [
        {
          "internalType": "address",
          "name": "from",
          "type": "address"
        },
        {
          "internalType": "address",
          "name": "to",
          "type": "address"
        },
        {
          "internalType": "uint256",
          "name": "tokenId",
          "type": "uint256"
        }
      ],
      "name": "transferFrom",
      "outputs": [],
      "stateMutability": "nonpayable",
      "type": "function"
    },
    {
      "inputs": [
        {
          "internalType": "address",
          "name": "newOwner",
          "type": "address"
        }
      ],
      "name": "transferOwnership",
      "outputs": [],
      "stateMutability": "nonpayable",
      "type": "function"
    }
  ],
  "bytecode": "0x60806040523480156200001157600080fd5b5060405162001d1f38038062001d1f8339810160408190526200003491620001fc565b6040805180820182526006815265546f6d69776160d01b602080830191825283518085019094526002845261544160f01b9084015281519192916200007c9160009162000139565b5080516200009290600190602084019062000139565b505050620000af620000a9620000e360201b60201c565b620000e7565b600980546001600160a01b0319166001600160a01b038416179055600a819055620000da83620000e7565b50505062000279565b3390565b600780546001600160a01b038381166001600160a01b0319831681179093556040519116919082907f8be0079c531659141344cd1fd0a4f28419497f9722a3daafe3b4186f6b6457e090600090a35050565b82805462000147906200023c565b90600052602060002090601f0160209004810192826200016b5760008555620001b6565b82601f106200018657805160ff1916838001178555620001b6565b82800160010185558215620001b6579182015b82811115620001b657825182559160200191906001019062000199565b50620001c4929150620001c8565b5090565b5b80821115620001c45760008155600101620001c9565b80516001600160a01b0381168114620001f757600080fd5b919050565b60008060006060848603121562000211578283fd5b6200021c84620001df565b92506200022c60208501620001df565b9150604084015190509250925092565b600181811c908216806200025157607f821691505b602082108114156200027357634e487b7160e01b600052602260045260246000fd5b50919050565b611a9680620002896000396000f3fe608060405234801561001057600080fd5b506004361061012c5760003560e01c806370a08231116100ad578063b88d4fde11610071578063b88d4fde14610294578063c87b56dd146102a7578063d5abeb01146102ba578063e985e9c5146102c2578063f2fde38b146102fe57600080fd5b806370a082311461024d578063715018a6146102605780638da5cb5b1461026857806395d89b4114610279578063a22cb4651461028157600080fd5b80632a55205a116100f45780632a55205a146101c15780632a9e63c6146101f357806342842e0e1461020657806345576f94146102195780636352211e1461023a57600080fd5b806301ffc9a71461013157806306fdde0314610159578063081812fc1461016e578063095ea7b31461019957806323b872dd146101ae575b600080fd5b61014461013f3660046116d6565b610311565b60405190151581526020015b60405180910390f35b61016161033c565b6040516101509190611825565b61018161017c366004611754565b6103ce565b6040516001600160a01b039091168152602001610150565b6101ac6101a73660046116ad565b61045b565b005b6101ac6101bc3660046115bf565b610571565b6101d46101cf36600461176c565b6105a2565b604080516001600160a01b039093168352602083019190915201610150565b6101ac610201366004611573565b6105dc565b6101ac6102143660046115bf565b610612565b61022c61022736600461170e565b61062d565b604051908152602001610150565b610181610248366004611754565b6106b1565b61022c61025b366004611573565b610728565b6101ac6107af565b6007546001600160a01b0316610181565b6101616107e5565b6101ac61028f366004611673565b6107f4565b6101ac6102a23660046115fa565b610803565b6101616102b5366004611754565b61083b565b61022c606381565b6101446102d036600461158d565b6001600160a01b03918216600090815260056020908152604080832093909416825291909152205460ff1690565b6101ac61030c366004611573565b6109b2565b60006001600160e01b0319821663152a902d60e11b1480610336575061033682610a4a565b92915050565b60606000805461034b9061199e565b80601f01602080910402602001604051908101604052809291908181526020018280546103779061199e565b80156103c45780601f10610399576101008083540402835291602001916103c4565b820191906000526020600020905b8154815290600101906020018083116103a757829003601f168201915b5050505050905090565b60006103d982610a9a565b61043f5760405162461bcd60e51b815260206004820152602c60248201527f4552433732313a20617070726f76656420717565727920666f72206e6f6e657860448201526b34b9ba32b73a103a37b5b2b760a11b60648201526084015b60405180910390fd5b506000908152600460205260409020546001600160a01b031690565b6000610466826106b1565b9050806001600160a01b0316836001600160a01b031614156104d45760405162461bcd60e51b815260206004820152602160248201527f4552433732313a20617070726f76616c20746f2063757272656e74206f776e656044820152603960f91b6064820152608401610436565b336001600160a01b03821614806104f057506104f081336102d0565b6105625760405162461bcd60e51b815260206004820152603860248201527f4552433732313a20617070726f76652063616c6c6572206973206e6f74206f7760448201527f6e6572206e6f7220617070726f76656420666f7220616c6c00000000000000006064820152608401610436565b61056c8383610ab7565b505050565b61057b3382610b25565b6105975760405162461bcd60e51b8152600401610436906118bf565b61056c838383610c0e565b600954600a5460009182916001600160a01b0390911690612710906105c7908661193c565b6105d19190611928565b915091509250929050565b6007546001600160a01b031633146106065760405162461bcd60e51b81526004016104369061188a565b61060f81610daa565b50565b61056c83838360405180602001604052806000815250610803565b6000606361063a60085490565b1061064457600080fd5b610652600880546001019055565b600061065d60085490565b90506106693382610e37565b6106738184610f6a565b807f9e0bfaf38878aad3ebd19b8c8065288eb130f0499a7378363d4652515588ac96846040516106a39190611825565b60405180910390a292915050565b6000818152600260205260408120546001600160a01b0316806103365760405162461bcd60e51b815260206004820152602960248201527f4552433732313a206f776e657220717565727920666f72206e6f6e657869737460448201526832b73a103a37b5b2b760b91b6064820152608401610436565b60006001600160a01b0382166107935760405162461bcd60e51b815260206004820152602a60248201527f4552433732313a2062616c616e636520717565727920666f7220746865207a65604482015269726f206164647265737360b01b6064820152608401610436565b506001600160a01b031660009081526003602052604090205490565b6007546001600160a01b031633146107d95760405162461bcd60e51b81526004016104369061188a565b6107e36000610ff5565b565b60606001805461034b9061199e565b6107ff338383611047565b5050565b61080d3383610b25565b6108295760405162461bcd60e51b8152600401610436906118bf565b61083584848484611116565b50505050565b606061084682610a9a565b6108ac5760405162461bcd60e51b815260206004820152603160248201527f45524337323155524953746f726167653a2055524920717565727920666f72206044820152703737b732bc34b9ba32b73a103a37b5b2b760791b6064820152608401610436565b600082815260066020526040812080546108c59061199e565b80601f01602080910402602001604051908101604052809291908181526020018280546108f19061199e565b801561093e5780601f106109135761010080835404028352916020019161093e565b820191906000526020600020905b81548152906001019060200180831161092157829003601f168201915b50505050509050600061095c60408051602081019091526000815290565b905080516000141561096f575092915050565b8151156109a15780826040516020016109899291906117b9565b60405160208183030381529060405292505050919050565b6109aa84611149565b949350505050565b6007546001600160a01b031633146109dc5760405162461bcd60e51b81526004016104369061188a565b6001600160a01b038116610a415760405162461bcd60e51b815260206004820152602660248201527f4f776e61626c653a206e6577206f776e657220697320746865207a65726f206160448201526564647265737360d01b6064820152608401610436565b61060f81610ff5565b60006001600160e01b031982166380ac58cd60e01b1480610a7b57506001600160e01b03198216635b5e139f60e01b145b8061033657506301ffc9a760e01b6001600160e01b0319831614610336565b6000908152600260205260409020546001600160a01b0316151590565b600081815260046020526040902080546001600160a01b0319166001600160a01b0384169081179091558190610aec826106b1565b6001600160a01b03167f8c5be1e5ebec7d5bd14f71427d1e84f3dd0314c0f7b2291e5b200ac8c7c3b92560405160405180910390a45050565b6000610b3082610a9a565b610b915760405162461bcd60e51b815260206004820152602c60248201527f4552433732313a206f70657261746f7220717565727920666f72206e6f6e657860448201526b34b9ba32b73a103a37b5b2b760a11b6064820152608401610436565b6000610b9c836106b1565b9050806001600160a01b0316846001600160a01b03161480610be357506001600160a01b0380821660009081526005602090815260408083209388168352929052205460ff165b806109aa5750836001600160a01b0316610bfc846103ce565b6001600160a01b031614949350505050565b826001600160a01b0316610c21826106b1565b6001600160a01b031614610c855760405162461bcd60e51b815260206004820152602560248201527f4552433732313a207472616e736665722066726f6d20696e636f72726563742060448201526437bbb732b960d91b6064820152608401610436565b6001600160a01b038216610ce75760405162461bcd60e51b8152602060048201526024808201527f4552433732313a207472616e7366657220746f20746865207a65726f206164646044820152637265737360e01b6064820152608401610436565b610cf2600082610ab7565b6001600160a01b0383166000908152600360205260408120805460019290610d1b90849061195b565b90915550506001600160a01b0382166000908152600360205260408120805460019290610d49908490611910565b909155505060008181526002602052604080822080546001600160a01b0319166001600160a01b0386811691821790925591518493918716917fddf252ad1be2c89b69c2b068fc378daa952ba7f163c4a11628f55a4df523b3ef91a4505050565b6001600160a01b038116610e155760405162461bcd60e51b815260206004820152602c60248201527f526f79616c746965733a206e657720726563697069656e74206973207468652060448201526b7a65726f206164647265737360a01b6064820152608401610436565b600980546001600160a01b0319166001600160a01b0392909216919091179055565b6001600160a01b038216610e8d5760405162461bcd60e51b815260206004820181905260248201527f4552433732313a206d696e7420746f20746865207a65726f20616464726573736044820152606401610436565b610e9681610a9a565b15610ee35760405162461bcd60e51b815260206004820152601c60248201527f4552433732313a20746f6b656e20616c7265616479206d696e746564000000006044820152606401610436565b6001600160a01b0382166000908152600360205260408120805460019290610f0c908490611910565b909155505060008181526002602052604080822080546001600160a01b0319166001600160a01b03861690811790915590518392907fddf252ad1be2c89b69c2b068fc378daa952ba7f163c4a11628f55a4df523b3ef908290a45050565b610f7382610a9a565b610fd65760405162461bcd60e51b815260206004820152602e60248201527f45524337323155524953746f726167653a2055524920736574206f66206e6f6e60448201526d32bc34b9ba32b73a103a37b5b2b760911b6064820152608401610436565b6000828152600660209081526040909120825161056c92840190611448565b600780546001600160a01b038381166001600160a01b0319831681179093556040519116919082907f8be0079c531659141344cd1fd0a4f28419497f9722a3daafe3b4186f6b6457e090600090a35050565b816001600160a01b0316836001600160a01b031614156110a95760405162461bcd60e51b815260206004820152601960248201527f4552433732313a20617070726f766520746f2063616c6c6572000000000000006044820152606401610436565b6001600160a01b03838116600081815260056020908152604080832094871680845294825291829020805460ff191686151590811790915591519182527f17307eab39ab6107e8899845ad3d59bd9653f200f220920489ca2b5937696c31910160405180910390a3505050565b611121848484610c0e565b61112d84848484611221565b6108355760405162461bcd60e51b815260040161043690611838565b606061115482610a9a565b6111b85760405162461bcd60e51b815260206004820152602f60248201527f4552433732314d657461646174613a2055524920717565727920666f72206e6f60448201526e3732bc34b9ba32b73a103a37b5b2b760891b6064820152608401610436565b60006111cf60408051602081019091526000815290565b905060008151116111ef576040518060200160405280600081525061121a565b806111f98461132e565b60405160200161120a9291906117b9565b6040516020818303038152906040525b9392505050565b60006001600160a01b0384163b1561132357604051630a85bd0160e11b81526001600160a01b0385169063150b7a02906112659033908990889088906004016117e8565b602060405180830381600087803b15801561127f57600080fd5b505af19250505080156112af575060408051601f3d908101601f191682019092526112ac918101906116f2565b60015b611309573d8080156112dd576040519150601f19603f3d011682016040523d82523d6000602084013e6112e2565b606091505b5080516113015760405162461bcd60e51b815260040161043690611838565b805181602001fd5b6001600160e01b031916630a85bd0160e11b1490506109aa565b506001949350505050565b6060816113525750506040805180820190915260018152600360fc1b602082015290565b8160005b811561137c5780611366816119d9565b91506113759050600a83611928565b9150611356565b60008167ffffffffffffffff8111156113a557634e487b7160e01b600052604160045260246000fd5b6040519080825280601f01601f1916602001820160405280156113cf576020820181803683370190505b5090505b84156109aa576113e460018361195b565b91506113f1600a866119f4565b6113fc906030611910565b60f81b81838151811061141f57634e487b7160e01b600052603260045260246000fd5b60200101906001600160f81b031916908160001a905350611441600a86611928565b94506113d3565b8280546114549061199e565b90600052602060002090601f01602090048101928261147657600085556114bc565b82601f1061148f57805160ff19168380011785556114bc565b828001600101855582156114bc579182015b828111156114bc5782518255916020019190600101906114a1565b506114c89291506114cc565b5090565b5b808211156114c857600081556001016114cd565b600067ffffffffffffffff808411156114fc576114fc611a34565b604051601f8501601f19908116603f0116810190828211818310171561152457611524611a34565b8160405280935085815286868601111561153d57600080fd5b858560208301376000602087830101525050509392505050565b80356001600160a01b038116811461156e57600080fd5b919050565b600060208284031215611584578081fd5b61121a82611557565b6000806040838503121561159f578081fd5b6115a883611557565b91506115b660208401611557565b90509250929050565b6000806000606084860312156115d3578081fd5b6115dc84611557565b92506115ea60208501611557565b9150604084013590509250925092565b6000806000806080858703121561160f578081fd5b61161885611557565b935061162660208601611557565b925060408501359150606085013567ffffffffffffffff811115611648578182fd5b8501601f81018713611658578182fd5b611667878235602084016114e1565b91505092959194509250565b60008060408385031215611685578182fd5b61168e83611557565b9150602083013580151581146116a2578182fd5b809150509250929050565b600080604083850312156116bf578182fd5b6116c883611557565b946020939093013593505050565b6000602082840312156116e7578081fd5b813561121a81611a4a565b600060208284031215611703578081fd5b815161121a81611a4a565b60006020828403121561171f578081fd5b813567ffffffffffffffff811115611735578182fd5b8201601f81018413611745578182fd5b6109aa848235602084016114e1565b600060208284031215611765578081fd5b5035919050565b6000806040838503121561177e578182fd5b50508035926020909101359150565b600081518084526117a5816020860160208601611972565b601f01601f19169290920160200192915050565b600083516117cb818460208801611972565b8351908301906117df818360208801611972565b01949350505050565b6001600160a01b038581168252841660208201526040810183905260806060820181905260009061181b9083018461178d565b9695505050505050565b60208152600061121a602083018461178d565b60208082526032908201527f4552433732313a207472616e7366657220746f206e6f6e20455243373231526560408201527131b2b4bb32b91034b6b83632b6b2b73a32b960711b606082015260800190565b6020808252818101527f4f776e61626c653a2063616c6c6572206973206e6f7420746865206f776e6572604082015260600190565b60208082526031908201527f4552433732313a207472616e736665722063616c6c6572206973206e6f74206f6040820152701ddb995c881b9bdc88185c1c1c9bdd9959607a1b606082015260800190565b6000821982111561192357611923611a08565b500190565b60008261193757611937611a1e565b500490565b600081600019048311821515161561195657611956611a08565b500290565b60008282101561196d5761196d611a08565b500390565b60005b8381101561198d578181015183820152602001611975565b838111156108355750506000910152565b600181811c908216806119b257607f821691505b602082108114156119d357634e487b7160e01b600052602260045260246000fd5b50919050565b60006000198214156119ed576119ed611a08565b5060010190565b600082611a0357611a03611a1e565b500690565b634e487b7160e01b600052601160045260246000fd5b634e487b7160e01b600052601260045260246000fd5b634e487b7160e01b600052604160045260246000fd5b6001600160e01b03198116811461060f57600080fdfea26469706673582212207439d416045661ae55a518d17bb97e4f1d8391633284d8bb4111afd0c1e99bdd64736f6c63430008040033",
  "linkReferences": {},
  "deployedLinkReferences": {}
}